{"abi":[{"type":"constructor","inputs":[{"name":"_oracleAddress","type":"address","internalType":"address"}],"stateMutability":"nonpayable"},{"type":"function","name":"betOn","inputs":[{"name":"choice","type":"uint8","internalType":"enum PredictionMarket.Outcome"}],"outputs":[],"stateMutability":"payable"},{"type":"function","name":"getGamblerBinaryBetStatistics","inputs":[{"name":"gambler","type":"address","internalType":"address"}],"outputs":[{"name":"","type":"tuple","internalType":"struct PredictionMarket.GamblerBetsStatus","components":[{"name":"gambler","type":"address","internalType":"address"},{"name":"count","type":"uint256","internalType":"uint256"},{"name":"investment","type":"uint256","internalType":"uint256"}]}],"stateMutability":"view"},{"type":"function","name":"getGamblerGeneralStatistics","inputs":[{"name":"gambler","type":"address","internalType":"address"}],"outputs":[{"name":"","type":"tuple","internalType":"struct PredictionMarket.GamblerBetsStatus","components":[{"name":"gambler","type":"address","internalType":"address"},{"name":"count","type":"uint256","internalType":"uint256"},{"name":"investment","type":"uint256","internalType":"uint256"}]}],"stateMutability":"view"},{"type":"function","name":"getGamblerSpecificOutcomeBetsStatistics","inputs":[{"name":"gambler","type":"address","internalType":"address"},{"name":"outcome","type":"uint8","internalType":"enum PredictionMarket.Outcome"}],"outputs":[{"name":"","type":"tuple","internalType":"struct PredictionMarket.GamblerBetsStatus","components":[{"name":"gambler","type":"address","internalType":"address"},{"name":"count","type":"uint256","internalType":"uint256"},{"name":"investment","type":"uint256","internalType":"uint256"}]}],"stateMutability":"view"},{"type":"function","name":"getOutcomeTrueness","inputs":[{"name":"outcome","type":"uint8","internalType":"enum PredictionMarket.Outcome"}],"outputs":[{"name":"","type":"uint8","internalType":"uint8"}],"stateMutability":"view"},{"type":"function","name":"getSpecificOutcomeStatistics","inputs":[{"name":"outcome","type":"uint8","internalType":"enum PredictionMarket.Outcome"}],"outputs":[{"name":"","type":"tuple","internalType":"struct PredictionMarket.OutcomeBetStats","components":[{"name":"count","type":"uint256","internalType":"uint256"},{"name":"totalAmount","type":"uint256","internalType":"uint256"}]}],"stateMutability":"view"},{"type":"function","name":"isOpen","inputs":[],"outputs":[{"name":"","type":"bool","internalType":"bool"}],"stateMutability":"view"},{"type":"function","name":"numberOfBetsOn","inputs":[{"name":"outcome","type":"uint8","internalType":"enum PredictionMarket.Outcome"}],"outputs":[{"name":"","type":"uint256","internalType":"uint256"}],"stateMutability":"view"},{"type":"function","name":"numberOfOutcomes","inputs":[],"outputs":[{"name":"","type":"uint256","internalType":"uint256"}],"stateMutability":"view"},{"type":"function","name":"numberOfTotalBets","inputs":[],"outputs":[{"name":"","type":"uint256","internalType":"uint256"}],"stateMutability":"view"},{"type":"function","name":"resolve","inputs":[{"name":"outcomeTrueness","type":"uint8[]","internalType":"uint8[]"}],"outputs":[],"stateMutability":"nonpayable"},{"type":"function","name":"withdraw","inputs":[],"outputs":[],"stateMutability":"nonpayable"}],"bytecode":{"object":"0x600080805560c06040526080908152600160a0819052610020916002610076565b5034801561002d57600080fd5b50604051611acb380380611acb83398101604081905261004c91610155565b600280546001600160a01b0319166001600160a01b03929092169190911790556000600355610185565b82805482825590600052602060002090601f0160209004810192821561011a5791602002820160005b838211156100eb57835183826101000a81548160ff021916908360018111156100ca576100ca61013f565b0217905550926020019260010160208160000104928301926001030261009f565b80156101185782816101000a81549060ff02191690556001016020816000010492830192600103026100eb565b505b5061012692915061012a565b5090565b5b80821115610126576000815560010161012b565b634e487b7160e01b600052602160045260246000fd5b60006020828403121561016757600080fd5b81516001600160a01b038116811461017e57600080fd5b9392505050565b611937806101946000396000f3fe6080604052600436106100a75760003560e01c80635c52e0c2116100645780635c52e0c2146101965780636a7546cb146101ab57806377c29b69146101cb578063b87283ff14610206578063d15bf8b814610226578063da2ae6a81461024657600080fd5b806335ee26b9146100ac57806339e18732146100e35780633ccfd60b146100f857806347535d7b1461010d57806349200d771461012c57806359b134a11461014b575b600080fd5b3480156100b857600080fd5b506100cc6100c7366004611672565b610266565b60405160ff90911681526020015b60405180910390f35b6100f66100f1366004611672565b6102ff565b005b34801561010457600080fd5b506100f6610461565b34801561011957600080fd5b50600354604051901581526020016100da565b34801561013857600080fd5b506001545b6040519081526020016100da565b34801561015757600080fd5b5061016b6101663660046116ab565b610743565b6040805182516001600160a01b031681526020808401519082015291810151908201526060016100da565b3480156101a257600080fd5b5061013d610a00565b3480156101b757600080fd5b5061016b6101c63660046116c6565b610a93565b3480156101d757600080fd5b506101eb6101e6366004611672565b610c74565b604080518251815260209283015192810192909252016100da565b34801561021257600080fd5b506100f6610221366004611720565b610d90565b34801561023257600080fd5b5061016b6102413660046116ab565b611000565b34801561025257600080fd5b5061013d610261366004611672565b611376565b600080600354116102be5760405162461bcd60e51b815260206004820152601b60248201527f4d61726b657420647565206e6f742072656163686564207965742e000000000060448201526064015b60405180910390fd5b600460008360018111156102d4576102d46117f0565b60018111156102e5576102e56117f0565b815260208101919091526040016000205460ff1692915050565b600354156103435760405162461bcd60e51b815260206004820152601160248201527026b0b935b2ba1034b99031b637b9b2b21760791b60448201526064016102b5565b60056000826001811115610359576103596117f0565b600181111561036a5761036a6117f0565b81526020019081526020016000206040518060a0016040528060008081546103919061181c565b918290555081523360208201523460408201526060018360018111156103b9576103b96117f0565b8152600060209182018190528354600180820186559482529082902083516004909202019081559082015181840180546001600160a01b0319166001600160a01b03909216919091179055604082015160028201556060820151600382018054939492939192909160ff1916908381811115610437576104376117f0565b021790555060809190910151600390910180549115156101000261ff001990921691909117905550565b6000600354116104bd5760405162461bcd60e51b815260206004820152602160248201527f50726564696374696f6e206973206e6f742066696e6973686564207965742e2e6044820152601760f91b60648201526084016102b5565b60008060008060005b600154811015610619576000600182815481106104e5576104e5611835565b60009182526020808320908204015460ff601f9092166101000a9004169150600481836001811115610519576105196117f0565b600181111561052a5761052a6117f0565b815260208101919091526040016000205460ff16111561061057600061054f82610c74565b60200151905060006105613384610a93565b60408101519091501561060057604081015161057d908861184b565b9650610589828761184b565b95508181604001516064600460008760018111156105a9576105a96117f0565b60018111156105ba576105ba6117f0565b81526020810191909152604001600020546105d8919060ff16611874565b60ff166105e59190611896565b6105ef91906118ad565b6105f9908961184b565b975061060d565b61060a828661184b565b94505b50505b506001016104c6565b506000831161067e5760405162461bcd60e51b815260206004820152602b60248201527f596f752068617665206e6f7420696e766573746564206f6e206120636f72726560448201526a31ba1037baba31b7b6b29760a91b60648201526084016102b5565b816106898483611896565b61069391906118ad565b61069d908561184b565b93506000336106ac858761184b565b604051600081818185875af1925050503d80600081146106e8576040519150601f19603f3d011682016040523d82523d6000602084013e6106ed565b606091505b50509050806107335760405162461bcd60e51b81526020600482015260126024820152712bb4ba34323930bbb0b6103330b4b632b21760711b60448201526064016102b5565b61073c336113b6565b5050505050565b61074b611634565b604080516060810182526001600160a01b0384168152600060208201819052918101829052905b6001548110156109f95760005b600560006001848154811061079657610796611835565b90600052602060002090602091828204019190069054906101000a900460ff1660018111156107c7576107c76117f0565b60018111156107d8576107d86117f0565b81526020810191909152604001600020548110156109f057846001600160a01b0316600560006001858154811061081157610811611835565b90600052602060002090602091828204019190069054906101000a900460ff166001811115610842576108426117f0565b6001811115610853576108536117f0565b8152602001908152602001600020828154811061087257610872611835565b60009182526020909120600160049092020101546001600160a01b0316148015610930575060056000600184815481106108ae576108ae611835565b90600052602060002090602091828204019190069054906101000a900460ff1660018111156108df576108df6117f0565b60018111156108f0576108f06117f0565b8152602001908152602001600020818154811061090f5761090f611835565b906000526020600020906004020160030160019054906101000a900460ff16155b156109e857602083018051906109458261181c565b81525050600560006001848154811061096057610960611835565b90600052602060002090602091828204019190069054906101000a900460ff166001811115610991576109916117f0565b60018111156109a2576109a26117f0565b815260200190815260200160002081815481106109c1576109c1611835565b906000526020600020906004020160020154836040018181516109e4919061184b565b9052505b60010161077f565b50600101610772565b5092915050565b600080805b600154811015610a8d576005600060018381548110610a2657610a26611835565b90600052602060002090602091828204019190069054906101000a900460ff166001811115610a5757610a576117f0565b6001811115610a6857610a686117f0565b8152602081019190915260400160002054610a83908361184b565b9150600101610a05565b50919050565b610a9b611634565b604080516060810182526001600160a01b0385168152600060208201819052918101829052905b60056000856001811115610ad857610ad86117f0565b6001811115610ae957610ae96117f0565b8152602081019190915260400160002054811015610c6a57846001600160a01b031660056000866001811115610b2157610b216117f0565b6001811115610b3257610b326117f0565b81526020019081526020016000208281548110610b5157610b51611835565b60009182526020909120600160049092020101546001600160a01b0316148015610bdd575060056000856001811115610b8c57610b8c6117f0565b6001811115610b9d57610b9d6117f0565b81526020019081526020016000208181548110610bbc57610bbc611835565b906000526020600020906004020160030160019054906101000a900460ff16155b15610c625760208201805190610bf28261181c565b90525060056000856001811115610c0b57610c0b6117f0565b6001811115610c1c57610c1c6117f0565b81526020019081526020016000208181548110610c3b57610c3b611835565b90600052602060002090600402016002015482604001818151610c5e919061184b565b9052505b600101610ac2565b5090505b92915050565b60408051808201909152600080825260208201526000604051806040016040528060056000866001811115610cab57610cab6117f0565b6001811115610cbc57610cbc6117f0565b81526020019081526020016000208054905081526020016000815250905060005b60056000856001811115610cf357610cf36117f0565b6001811115610d0457610d046117f0565b81526020810191909152604001600020548110156109f95760056000856001811115610d3257610d326117f0565b6001811115610d4357610d436117f0565b81526020019081526020016000208181548110610d6257610d62611835565b90600052602060002090600402016002015482602001818151610d85919061184b565b905250600101610cdd565b6002546001600160a01b03163314610e015760405162461bcd60e51b815260206004820152602e60248201527f4f6e6c79206f7261636c6520697320616c6c6f77656420746f207265736f6c7660448201526d32903a3434b99036b0b935b2ba1760911b60648201526084016102b5565b60035415610e5b5760405162461bcd60e51b815260206004820152602160248201527f4d61726b657420686173206265656e207265736f6c76656420616c72656164796044820152601760f91b60648201526084016102b5565b600154815114610ed35760405162461bcd60e51b815260206004820152603760248201527f4f7261636c65206f7574636f6d652073657420646f6573206e6f74206d61746360448201527f682077697468206d61726b6574206f7574636f6d65732e00000000000000000060648201526084016102b5565b6000805b8251811015610f1257828181518110610ef257610ef2611835565b602002602001015160ff1682610f08919061184b565b9150600101610ed7565b5080606414610f6f5760405162461bcd60e51b815260206004820152602360248201527f4f7574636f6d657320747275656e65737320617272617920697320696e76616c60448201526234b21760e91b60648201526084016102b5565b60005b8251811015610ff757828181518110610f8d57610f8d611835565b602002602001015160046000836001811115610fab57610fab6117f0565b6001811115610fbc57610fbc6117f0565b6001811115610fcd57610fcd6117f0565b81526020810191909152604001600020805460ff191660ff92909216919091179055600101610f72565b50504260035550565b611008611634565b604080516060810182526001600160a01b03841681526000602080830182905292820181905260059092526000805160206118c2833981519152548280526000805160206118e28339815191525491929182911015611083576001600090815260056020526000805160206118c2833981519152549061109f565b6000805260056020526000805160206118e28339815191525460015b9150915060005b82811015611230576000805260056020526000805160206118e283398151915280546001600160a01b0388169190839081106110e4576110e4611835565b60009182526020909120600160049092020101546001600160a01b03160361116a57602084018051906111168261181c565b9052506000805260056020526000805160206118e283398151915280548290811061114357611143611835565b90600052602060002090600402016002015484604001818151611166919061184b565b9052505b600160005260056020526000805160206118c283398151915280546001600160a01b0388169190839081106111a1576111a1611835565b60009182526020909120600160049092020101546001600160a01b03160361122857602084018051906111d38261181c565b905250600160005260056020526000805160206118c283398151915280548290811061120157611201611835565b90600052602060002090600402016002015484604001818151611224919061184b565b9052505b6001016110a6565b50815b60056000836001811115611249576112496117f0565b600181111561125a5761125a6117f0565b815260208101919091526040016000205481101561136c57856001600160a01b031660056000846001811115611292576112926117f0565b60018111156112a3576112a36117f0565b815260200190815260200160002082815481106112c2576112c2611835565b60009182526020909120600160049092020101546001600160a01b03160361136457602084018051906112f48261181c565b9052506005600083600181111561130d5761130d6117f0565b600181111561131e5761131e6117f0565b8152602001908152602001600020818154811061133d5761133d611835565b90600052602060002090600402016002015484604001818151611360919061184b565b9052505b600101611233565b5091949350505050565b60006005600083600181111561138e5761138e6117f0565b600181111561139f5761139f6117f0565b815260208101919091526040016000205492915050565b60005b6001548110156116305760005b60056000600184815481106113dd576113dd611835565b90600052602060002090602091828204019190069054906101000a900460ff16600181111561140e5761140e6117f0565b600181111561141f5761141f6117f0565b815260208101919091526040016000205481101561162757826001600160a01b0316600560006001858154811061145857611458611835565b90600052602060002090602091828204019190069054906101000a900460ff166001811115611489576114896117f0565b600181111561149a5761149a6117f0565b815260200190815260200160002082815481106114b9576114b9611835565b60009182526020909120600160049092020101546001600160a01b0316148015611577575060056000600184815481106114f5576114f5611835565b90600052602060002090602091828204019190069054906101000a900460ff166001811115611526576115266117f0565b6001811115611537576115376117f0565b8152602001908152602001600020818154811061155657611556611835565b906000526020600020906004020160030160019054906101000a900460ff16155b1561161f576001600560006001858154811061159557611595611835565b90600052602060002090602091828204019190069054906101000a900460ff1660018111156115c6576115c66117f0565b60018111156115d7576115d76117f0565b815260200190815260200160002082815481106115f6576115f6611835565b906000526020600020906004020160030160016101000a81548160ff0219169083151502179055505b6001016113c6565b506001016113b9565b5050565b604051806060016040528060006001600160a01b0316815260200160008152602001600081525090565b80356002811061166d57600080fd5b919050565b60006020828403121561168457600080fd5b61168d8261165e565b9392505050565b80356001600160a01b038116811461166d57600080fd5b6000602082840312156116bd57600080fd5b61168d82611694565b600080604083850312156116d957600080fd5b6116e283611694565b91506116f06020840161165e565b90509250929050565b634e487b7160e01b600052604160045260246000fd5b803560ff8116811461166d57600080fd5b60006020828403121561173257600080fd5b813567ffffffffffffffff81111561174957600080fd5b8201601f8101841361175a57600080fd5b803567ffffffffffffffff811115611774576117746116f9565b8060051b604051601f19603f830116810181811067ffffffffffffffff821117156117a1576117a16116f9565b6040529182526020818401810192908101878411156117bf57600080fd5b6020850194505b838510156117e5576117d78561170f565b8152602094850194016117c6565b509695505050505050565b634e487b7160e01b600052602160045260246000fd5b634e487b7160e01b600052601160045260246000fd5b60006001820161182e5761182e611806565b5060010190565b634e487b7160e01b600052603260045260246000fd5b80820180821115610c6e57610c6e611806565b634e487b7160e01b600052601260045260246000fd5b600060ff8316806118875761188761185e565b8060ff84160491505092915050565b8082028115828204841417610c6e57610c6e611806565b6000826118bc576118bc61185e565b50049056fe1471eb6eb2c5e789fc3de43f8ce62938c7d1836ec861730447e2ada8fd81017b05b8ccbb9d4d8fb16ea74ce3c29a41f1b461fbdaff4714a0d9a8eb05499746bca2646970667358221220cc2197aea91bb1076e6f5e1b13f65f9caae1832e950ab6d24d712c75ba8c622c64736f6c634300081c0033","linkReferences":{}},"methodIdentifiers":{"betOn(uint8)":"39e18732","getGamblerBinaryBetStatistics(address)":"d15bf8b8","getGamblerGeneralStatistics(address)":"59b134a1","getGamblerSpecificOutcomeBetsStatistics(address,uint8)":"6a7546cb","getOutcomeTrueness(uint8)":"35ee26b9","getSpecificOutcomeStatistics(uint8)":"77c29b69","isOpen()":"47535d7b","numberOfBetsOn(uint8)":"da2ae6a8","numberOfOutcomes()":"49200d77","numberOfTotalBets()":"5c52e0c2","resolve(uint8[])":"b87283ff","withdraw()":"3ccfd60b"},"id":23}