{"abi":[{"type":"constructor","inputs":[{"name":"_oracleAddress","type":"address","internalType":"address"}],"stateMutability":"nonpayable"},{"type":"function","name":"betOn","inputs":[{"name":"choice","type":"uint8","internalType":"enum PredictionMarket.Outcome"}],"outputs":[],"stateMutability":"payable"},{"type":"function","name":"getGamblerBinaryBetStatistics","inputs":[{"name":"gambler","type":"address","internalType":"address"}],"outputs":[{"name":"","type":"tuple","internalType":"struct PredictionMarket.GamblerBetsStatus","components":[{"name":"gambler","type":"address","internalType":"address"},{"name":"count","type":"uint256","internalType":"uint256"},{"name":"investment","type":"uint256","internalType":"uint256"}]}],"stateMutability":"view"},{"type":"function","name":"getGamblerGeneralStatistics","inputs":[{"name":"gambler","type":"address","internalType":"address"}],"outputs":[{"name":"","type":"tuple","internalType":"struct PredictionMarket.GamblerBetsStatus","components":[{"name":"gambler","type":"address","internalType":"address"},{"name":"count","type":"uint256","internalType":"uint256"},{"name":"investment","type":"uint256","internalType":"uint256"}]}],"stateMutability":"view"},{"type":"function","name":"getGamblerSpecificOutcomeBetsStatistics","inputs":[{"name":"gambler","type":"address","internalType":"address"},{"name":"outcome","type":"uint8","internalType":"enum PredictionMarket.Outcome"}],"outputs":[{"name":"","type":"tuple","internalType":"struct PredictionMarket.GamblerBetsStatus","components":[{"name":"gambler","type":"address","internalType":"address"},{"name":"count","type":"uint256","internalType":"uint256"},{"name":"investment","type":"uint256","internalType":"uint256"}]}],"stateMutability":"view"},{"type":"function","name":"getOutcomeTrueness","inputs":[{"name":"outcome","type":"uint8","internalType":"enum PredictionMarket.Outcome"}],"outputs":[{"name":"","type":"uint8","internalType":"uint8"}],"stateMutability":"view"},{"type":"function","name":"getSpecificOutcomeStatistics","inputs":[{"name":"outcome","type":"uint8","internalType":"enum PredictionMarket.Outcome"}],"outputs":[{"name":"","type":"tuple","internalType":"struct PredictionMarket.OutcomeBetStats","components":[{"name":"count","type":"uint256","internalType":"uint256"},{"name":"totalAmount","type":"uint256","internalType":"uint256"}]}],"stateMutability":"view"},{"type":"function","name":"hasPlacedABet","inputs":[{"name":"gambler","type":"address","internalType":"address"}],"outputs":[{"name":"","type":"bool","internalType":"bool"}],"stateMutability":"view"},{"type":"function","name":"isOpen","inputs":[],"outputs":[{"name":"","type":"bool","internalType":"bool"}],"stateMutability":"view"},{"type":"function","name":"numberOfBetsOn","inputs":[{"name":"outcome","type":"uint8","internalType":"enum PredictionMarket.Outcome"}],"outputs":[{"name":"","type":"uint256","internalType":"uint256"}],"stateMutability":"view"},{"type":"function","name":"numberOfOutcomes","inputs":[],"outputs":[{"name":"","type":"uint256","internalType":"uint256"}],"stateMutability":"view"},{"type":"function","name":"numberOfTotalBets","inputs":[],"outputs":[{"name":"","type":"uint256","internalType":"uint256"}],"stateMutability":"view"},{"type":"function","name":"resolve","inputs":[{"name":"outcomeTrueness","type":"uint8[]","internalType":"uint8[]"}],"outputs":[],"stateMutability":"nonpayable"},{"type":"function","name":"result","inputs":[],"outputs":[{"name":"firstChance","type":"uint8","internalType":"enum PredictionMarket.Outcome"},{"name":"lastChance","type":"uint8","internalType":"enum PredictionMarket.Outcome"}],"stateMutability":"view"},{"type":"function","name":"withdraw","inputs":[],"outputs":[],"stateMutability":"nonpayable"}],"bytecode":{"object":"0x600080805560c06040526080908152600160a0819052610020916002610076565b5034801561002d57600080fd5b5060405161202a38038061202a83398101604081905261004c91610155565b600280546001600160a01b0319166001600160a01b03929092169190911790556000600355610185565b82805482825590600052602060002090601f0160209004810192821561011a5791602002820160005b838211156100eb57835183826101000a81548160ff021916908360018111156100ca576100ca61013f565b0217905550926020019260010160208160000104928301926001030261009f565b80156101185782816101000a81549060ff02191690556001016020816000010492830192600103026100eb565b505b5061012692915061012a565b5090565b5b80821115610126576000815560010161012b565b634e487b7160e01b600052602160045260246000fd5b60006020828403121561016757600080fd5b81516001600160a01b038116811461017e57600080fd5b9392505050565b611e96806101946000396000f3fe6080604052600436106100dd5760003560e01c80635c52e0c21161007f57806377c29b691161005957806377c29b6914610255578063b87283ff14610290578063d15bf8b8146102b0578063da2ae6a8146102d057600080fd5b80635c52e0c2146101ef57806365372147146102045780636a7546cb1461023557600080fd5b806347535d7b116100bb57806347535d7b1461014357806349200d77146101655780634986d8331461018457806359b134a1146101a457600080fd5b806335ee26b9146100e257806339e18732146101195780633ccfd60b1461012e575b600080fd5b3480156100ee57600080fd5b506101026100fd366004611bbe565b6102f0565b60405160ff90911681526020015b60405180910390f35b61012c610127366004611bbe565b610389565b005b34801561013a57600080fd5b5061012c6104eb565b34801561014f57600080fd5b50600354155b6040519015158152602001610110565b34801561017157600080fd5b506001545b604051908152602001610110565b34801561019057600080fd5b5061015561019f366004611bf7565b6107a0565b3480156101b057600080fd5b506101c46101bf366004611bf7565b61098b565b6040805182516001600160a01b03168152602080840151908201529181015190820152606001610110565b3480156101fb57600080fd5b50610176610c48565b34801561021057600080fd5b506006546102279060ff8082169161010090041682565b604051610110929190611c4a565b34801561024157600080fd5b506101c4610250366004611c65565b610cdb565b34801561026157600080fd5b50610275610270366004611bbe565b610ebc565b60408051825181526020928301519281019290925201610110565b34801561029c57600080fd5b5061012c6102ab366004611cbf565b610fd8565b3480156102bc57600080fd5b506101c46102cb366004611bf7565b61154c565b3480156102dc57600080fd5b506101766102eb366004611bbe565b6118c2565b600080600354116103485760405162461bcd60e51b815260206004820152601b60248201527f4d61726b657420647565206e6f742072656163686564207965742e000000000060448201526064015b60405180910390fd5b6004600083600181111561035e5761035e611c12565b600181111561036f5761036f611c12565b815260208101919091526040016000205460ff1692915050565b600354156103cd5760405162461bcd60e51b815260206004820152601160248201527026b0b935b2ba1034b99031b637b9b2b21760791b604482015260640161033f565b600560008260018111156103e3576103e3611c12565b60018111156103f4576103f4611c12565b81526020019081526020016000206040518060a00160405280600080815461041b90611da5565b9182905550815233602082015234604082015260600183600181111561044357610443611c12565b8152600060209182018190528354600180820186559482529082902083516004909202019081559082015181840180546001600160a01b0319166001600160a01b03909216919091179055604082015160028201556060820151600382018054939492939192909160ff19169083818111156104c1576104c1611c12565b021790555060809190910151600390910180549115156101000261ff001990921691909117905550565b6000600354116105355760405162461bcd60e51b815260206004820152601560248201527426b0b935b2ba1034b99039ba34b6361037b832b71760591b604482015260640161033f565b61053e336107a0565b151560011461058f5760405162461bcd60e51b815260206004820181905260248201527f596f752068617665206e6f7420706c6163656420616e7920626574207965742e604482015260640161033f565b60008060008060005b6001548110156106cd576000600182815481106105b7576105b7611dbe565b60009182526020808320908204015460ff601f9092166101000a90041691506105df82610ebc565b6020015190506000600460008460018111156105fd576105fd611c12565b600181111561060e5761060e611c12565b815260208101919091526040016000205460ff1611156106b6576106328186611dd4565b945060006106403384610cdb565b6040810151909150156106b057606481604001516004600086600181111561066a5761066a611c12565b600181111561067b5761067b611c12565b8152602081019190915260400160002054610699919060ff16611de7565b6106a39190611dfe565b6106ad9088611dd4565b96505b506106c3565b6106c08185611dd4565b93505b5050600101610598565b50821561079157816106df8483611de7565b6106e99190611dfe565b6106f39085611dd4565b93506000336107028587611dd4565b604051600081818185875af1925050503d806000811461073e576040519150601f19603f3d011682016040523d82523d6000602084013e610743565b606091505b509091505060018115151461078f5760405162461bcd60e51b81526020600482015260126024820152712bb4ba34323930bbb0b6103330b4b632b21760711b604482015260640161033f565b505b61079a33611902565b50505050565b6000805b6001548110156109825760005b60056000600184815481106107c8576107c8611dbe565b90600052602060002090602091828204019190069054906101000a900460ff1660018111156107f9576107f9611c12565b600181111561080a5761080a611c12565b815260208101919091526040016000205481101561097957836001600160a01b0316600560006001858154811061084357610843611dbe565b90600052602060002090602091828204019190069054906101000a900460ff16600181111561087457610874611c12565b600181111561088557610885611c12565b815260200190815260200160002082815481106108a4576108a4611dbe565b60009182526020909120600160049092020101546001600160a01b0316148015610962575060056000600184815481106108e0576108e0611dbe565b90600052602060002090602091828204019190069054906101000a900460ff16600181111561091157610911611c12565b600181111561092257610922611c12565b8152602001908152602001600020818154811061094157610941611dbe565b906000526020600020906004020160030160019054906101000a900460ff16155b15610971575060019392505050565b6001016107b1565b506001016107a4565b50600092915050565b610993611b80565b604080516060810182526001600160a01b0384168152600060208201819052918101829052905b600154811015610c415760005b60056000600184815481106109de576109de611dbe565b90600052602060002090602091828204019190069054906101000a900460ff166001811115610a0f57610a0f611c12565b6001811115610a2057610a20611c12565b8152602081019190915260400160002054811015610c3857846001600160a01b03166005600060018581548110610a5957610a59611dbe565b90600052602060002090602091828204019190069054906101000a900460ff166001811115610a8a57610a8a611c12565b6001811115610a9b57610a9b611c12565b81526020019081526020016000208281548110610aba57610aba611dbe565b60009182526020909120600160049092020101546001600160a01b0316148015610b7857506005600060018481548110610af657610af6611dbe565b90600052602060002090602091828204019190069054906101000a900460ff166001811115610b2757610b27611c12565b6001811115610b3857610b38611c12565b81526020019081526020016000208181548110610b5757610b57611dbe565b906000526020600020906004020160030160019054906101000a900460ff16155b15610c305760208301805190610b8d82611da5565b815250506005600060018481548110610ba857610ba8611dbe565b90600052602060002090602091828204019190069054906101000a900460ff166001811115610bd957610bd9611c12565b6001811115610bea57610bea611c12565b81526020019081526020016000208181548110610c0957610c09611dbe565b90600052602060002090600402016002015483604001818151610c2c9190611dd4565b9052505b6001016109c7565b506001016109ba565b5092915050565b600080805b600154811015610cd5576005600060018381548110610c6e57610c6e611dbe565b90600052602060002090602091828204019190069054906101000a900460ff166001811115610c9f57610c9f611c12565b6001811115610cb057610cb0611c12565b8152602081019190915260400160002054610ccb9083611dd4565b9150600101610c4d565b50919050565b610ce3611b80565b604080516060810182526001600160a01b0385168152600060208201819052918101829052905b60056000856001811115610d2057610d20611c12565b6001811115610d3157610d31611c12565b8152602081019190915260400160002054811015610eb257846001600160a01b031660056000866001811115610d6957610d69611c12565b6001811115610d7a57610d7a611c12565b81526020019081526020016000208281548110610d9957610d99611dbe565b60009182526020909120600160049092020101546001600160a01b0316148015610e25575060056000856001811115610dd457610dd4611c12565b6001811115610de557610de5611c12565b81526020019081526020016000208181548110610e0457610e04611dbe565b906000526020600020906004020160030160019054906101000a900460ff16155b15610eaa5760208201805190610e3a82611da5565b90525060056000856001811115610e5357610e53611c12565b6001811115610e6457610e64611c12565b81526020019081526020016000208181548110610e8357610e83611dbe565b90600052602060002090600402016002015482604001818151610ea69190611dd4565b9052505b600101610d0a565b5090505b92915050565b60408051808201909152600080825260208201526000604051806040016040528060056000866001811115610ef357610ef3611c12565b6001811115610f0457610f04611c12565b81526020019081526020016000208054905081526020016000815250905060005b60056000856001811115610f3b57610f3b611c12565b6001811115610f4c57610f4c611c12565b8152602081019190915260400160002054811015610c415760056000856001811115610f7a57610f7a611c12565b6001811115610f8b57610f8b611c12565b81526020019081526020016000208181548110610faa57610faa611dbe565b90600052602060002090600402016002015482602001818151610fcd9190611dd4565b905250600101610f25565b6002546001600160a01b031633146110495760405162461bcd60e51b815260206004820152602e60248201527f4f6e6c79206f7261636c6520697320616c6c6f77656420746f207265736f6c7660448201526d32903a3434b99036b0b935b2ba1760911b606482015260840161033f565b600354156110a35760405162461bcd60e51b815260206004820152602160248201527f4d61726b657420686173206265656e207265736f6c76656420616c72656164796044820152601760f91b606482015260840161033f565b60015481511461111b5760405162461bcd60e51b815260206004820152603760248201527f4f7261636c65206f7574636f6d652073657420646f6573206e6f74206d61746360448201527f682077697468206d61726b6574206f7574636f6d65732e000000000000000000606482015260840161033f565b6000805b825181101561115a5782818151811061113a5761113a611dbe565b602002602001015160ff16826111509190611dd4565b915060010161111f565b50806064146111b75760405162461bcd60e51b815260206004820152602360248201527f4f7574636f6d657320747275656e65737320617272617920697320696e76616c60448201526234b21760e91b606482015260840161033f565b60005b825181101561123f578281815181106111d5576111d5611dbe565b6020026020010151600460008360018111156111f3576111f3611c12565b600181111561120457611204611c12565b600181111561121557611215611c12565b81526020810191909152604001600020805460ff191660ff929092169190911790556001016111ba565b50426003556001805460009061125757611257611dbe565b60009182526020918290209181049091015460068054601f9093166101000a90910460ff169160ff19166001838181111561129457611294611c12565b021790555060016000815481106112ad576112ad611dbe565b90600052602060002090602091828204019190069054906101000a900460ff16600660000160016101000a81548160ff021916908360018111156112f3576112f3611c12565b021790555060005b6001548110156115475760065460049060009060ff16600181111561132257611322611c12565b600181111561133357611333611c12565b815260200190815260200160002060009054906101000a900460ff1660ff16600460006001848154811061136957611369611dbe565b90600052602060002090602091828204019190069054906101000a900460ff16600181111561139a5761139a611c12565b60018111156113ab576113ab611c12565b815260208101919091526040016000205460ff16111561141b57600181815481106113d8576113d8611dbe565b60009182526020918290209181049091015460068054601f9093166101000a90910460ff169160ff19166001838181111561141557611415611c12565b02179055505b600654600490600090610100900460ff16600181111561143d5761143d611c12565b600181111561144e5761144e611c12565b815260200190815260200160002060009054906101000a900460ff1660ff16600460006001848154811061148457611484611dbe565b90600052602060002090602091828204019190069054906101000a900460ff1660018111156114b5576114b5611c12565b60018111156114c6576114c6611c12565b815260208101919091526040016000205460ff16101561153f57600181815481106114f3576114f3611dbe565b90600052602060002090602091828204019190069054906101000a900460ff16600660000160016101000a81548160ff0219169083600181111561153957611539611c12565b02179055505b6001016112fb565b505050565b611554611b80565b604080516060810182526001600160a01b0384168152600060208083018290529282018190526005909252600080516020611e2183398151915254828052600080516020611e4183398151915254919291829110156115cf57600160009081526005602052600080516020611e2183398151915254906115eb565b600080526005602052600080516020611e418339815191525460015b9150915060005b8281101561177c57600080526005602052600080516020611e4183398151915280546001600160a01b03881691908390811061163057611630611dbe565b60009182526020909120600160049092020101546001600160a01b0316036116b6576020840180519061166282611da5565b905250600080526005602052600080516020611e4183398151915280548290811061168f5761168f611dbe565b906000526020600020906004020160020154846040018181516116b29190611dd4565b9052505b60016000526005602052600080516020611e2183398151915280546001600160a01b0388169190839081106116ed576116ed611dbe565b60009182526020909120600160049092020101546001600160a01b031603611774576020840180519061171f82611da5565b90525060016000526005602052600080516020611e2183398151915280548290811061174d5761174d611dbe565b906000526020600020906004020160020154846040018181516117709190611dd4565b9052505b6001016115f2565b50815b6005600083600181111561179557611795611c12565b60018111156117a6576117a6611c12565b81526020810191909152604001600020548110156118b857856001600160a01b0316600560008460018111156117de576117de611c12565b60018111156117ef576117ef611c12565b8152602001908152602001600020828154811061180e5761180e611dbe565b60009182526020909120600160049092020101546001600160a01b0316036118b0576020840180519061184082611da5565b9052506005600083600181111561185957611859611c12565b600181111561186a5761186a611c12565b8152602001908152602001600020818154811061188957611889611dbe565b906000526020600020906004020160020154846040018181516118ac9190611dd4565b9052505b60010161177f565b5091949350505050565b6000600560008360018111156118da576118da611c12565b60018111156118eb576118eb611c12565b815260208101919091526040016000205492915050565b60005b600154811015611b7c5760005b600560006001848154811061192957611929611dbe565b90600052602060002090602091828204019190069054906101000a900460ff16600181111561195a5761195a611c12565b600181111561196b5761196b611c12565b8152602081019190915260400160002054811015611b7357826001600160a01b031660056000600185815481106119a4576119a4611dbe565b90600052602060002090602091828204019190069054906101000a900460ff1660018111156119d5576119d5611c12565b60018111156119e6576119e6611c12565b81526020019081526020016000208281548110611a0557611a05611dbe565b60009182526020909120600160049092020101546001600160a01b0316148015611ac357506005600060018481548110611a4157611a41611dbe565b90600052602060002090602091828204019190069054906101000a900460ff166001811115611a7257611a72611c12565b6001811115611a8357611a83611c12565b81526020019081526020016000208181548110611aa257611aa2611dbe565b906000526020600020906004020160030160019054906101000a900460ff16155b15611b6b5760016005600060018581548110611ae157611ae1611dbe565b90600052602060002090602091828204019190069054906101000a900460ff166001811115611b1257611b12611c12565b6001811115611b2357611b23611c12565b81526020019081526020016000208281548110611b4257611b42611dbe565b906000526020600020906004020160030160016101000a81548160ff0219169083151502179055505b600101611912565b50600101611905565b5050565b604051806060016040528060006001600160a01b0316815260200160008152602001600081525090565b803560028110611bb957600080fd5b919050565b600060208284031215611bd057600080fd5b611bd982611baa565b9392505050565b80356001600160a01b0381168114611bb957600080fd5b600060208284031215611c0957600080fd5b611bd982611be0565b634e487b7160e01b600052602160045260246000fd5b60028110611c4657634e487b7160e01b600052602160045260246000fd5b9052565b60408101611c588285611c28565b611bd96020830184611c28565b60008060408385031215611c7857600080fd5b611c8183611be0565b9150611c8f60208401611baa565b90509250929050565b634e487b7160e01b600052604160045260246000fd5b803560ff81168114611bb957600080fd5b600060208284031215611cd157600080fd5b813567ffffffffffffffff811115611ce857600080fd5b8201601f81018413611cf957600080fd5b803567ffffffffffffffff811115611d1357611d13611c98565b8060051b604051601f19603f830116810181811067ffffffffffffffff82111715611d4057611d40611c98565b604052918252602081840181019290810187841115611d5e57600080fd5b6020850194505b83851015611d8457611d7685611cae565b815260209485019401611d65565b509695505050505050565b634e487b7160e01b600052601160045260246000fd5b600060018201611db757611db7611d8f565b5060010190565b634e487b7160e01b600052603260045260246000fd5b80820180821115610eb657610eb6611d8f565b8082028115828204841417610eb657610eb6611d8f565b600082611e1b57634e487b7160e01b600052601260045260246000fd5b50049056fe1471eb6eb2c5e789fc3de43f8ce62938c7d1836ec861730447e2ada8fd81017b05b8ccbb9d4d8fb16ea74ce3c29a41f1b461fbdaff4714a0d9a8eb05499746bca26469706673582212206370b36ad68e6e8305d1440132dff487342cbec828b350dd6a100fc3b3f28c1d64736f6c634300081c0033","linkReferences":{}},"methodIdentifiers":{"betOn(uint8)":"39e18732","getGamblerBinaryBetStatistics(address)":"d15bf8b8","getGamblerGeneralStatistics(address)":"59b134a1","getGamblerSpecificOutcomeBetsStatistics(address,uint8)":"6a7546cb","getOutcomeTrueness(uint8)":"35ee26b9","getSpecificOutcomeStatistics(uint8)":"77c29b69","hasPlacedABet(address)":"4986d833","isOpen()":"47535d7b","numberOfBetsOn(uint8)":"da2ae6a8","numberOfOutcomes()":"49200d77","numberOfTotalBets()":"5c52e0c2","resolve(uint8[])":"b87283ff","result()":"65372147","withdraw()":"3ccfd60b"},"id":23}