{"abi":[{"type":"constructor","inputs":[{"name":"_oracleAddress","type":"address","internalType":"address"}],"stateMutability":"nonpayable"},{"type":"function","name":"betOn","inputs":[{"name":"choice","type":"uint8","internalType":"enum PredictionMarket.Outcome"}],"outputs":[],"stateMutability":"payable"},{"type":"function","name":"getGamblerBinaryBetStatistics","inputs":[{"name":"gambler","type":"address","internalType":"address"}],"outputs":[{"name":"","type":"tuple","internalType":"struct PredictionMarket.GamblerBetsStatus","components":[{"name":"gambler","type":"address","internalType":"address"},{"name":"count","type":"uint256","internalType":"uint256"},{"name":"investment","type":"uint256","internalType":"uint256"}]}],"stateMutability":"view"},{"type":"function","name":"getGamblerGeneralStatistics","inputs":[{"name":"gambler","type":"address","internalType":"address"}],"outputs":[{"name":"","type":"tuple","internalType":"struct PredictionMarket.GamblerBetsStatus","components":[{"name":"gambler","type":"address","internalType":"address"},{"name":"count","type":"uint256","internalType":"uint256"},{"name":"investment","type":"uint256","internalType":"uint256"}]}],"stateMutability":"view"},{"type":"function","name":"getGamblerSpecificOutcomeBetsStatistics","inputs":[{"name":"gambler","type":"address","internalType":"address"},{"name":"outcome","type":"uint8","internalType":"enum PredictionMarket.Outcome"}],"outputs":[{"name":"","type":"tuple","internalType":"struct PredictionMarket.GamblerBetsStatus","components":[{"name":"gambler","type":"address","internalType":"address"},{"name":"count","type":"uint256","internalType":"uint256"},{"name":"investment","type":"uint256","internalType":"uint256"}]}],"stateMutability":"view"},{"type":"function","name":"getOutcomeTrueness","inputs":[{"name":"outcome","type":"uint8","internalType":"enum PredictionMarket.Outcome"}],"outputs":[{"name":"","type":"uint8","internalType":"uint8"}],"stateMutability":"view"},{"type":"function","name":"getSpecificOutcomeStatistics","inputs":[{"name":"outcome","type":"uint8","internalType":"enum PredictionMarket.Outcome"}],"outputs":[{"name":"","type":"tuple","internalType":"struct PredictionMarket.OutcomeBetStats","components":[{"name":"count","type":"uint256","internalType":"uint256"},{"name":"totalAmount","type":"uint256","internalType":"uint256"}]}],"stateMutability":"view"},{"type":"function","name":"hasPlacedABet","inputs":[{"name":"gambler","type":"address","internalType":"address"}],"outputs":[{"name":"","type":"bool","internalType":"bool"}],"stateMutability":"view"},{"type":"function","name":"isOpen","inputs":[],"outputs":[{"name":"","type":"bool","internalType":"bool"}],"stateMutability":"view"},{"type":"function","name":"numberOfBetsOn","inputs":[{"name":"outcome","type":"uint8","internalType":"enum PredictionMarket.Outcome"}],"outputs":[{"name":"","type":"uint256","internalType":"uint256"}],"stateMutability":"view"},{"type":"function","name":"numberOfOutcomes","inputs":[],"outputs":[{"name":"","type":"uint256","internalType":"uint256"}],"stateMutability":"view"},{"type":"function","name":"numberOfTotalBets","inputs":[],"outputs":[{"name":"","type":"uint256","internalType":"uint256"}],"stateMutability":"view"},{"type":"function","name":"resolve","inputs":[{"name":"outcomeTrueness","type":"uint8[]","internalType":"uint8[]"}],"outputs":[],"stateMutability":"nonpayable"},{"type":"function","name":"withdraw","inputs":[],"outputs":[],"stateMutability":"nonpayable"}],"bytecode":{"object":"0x600080805560c06040526080908152600160a0819052610020916002610076565b5034801561002d57600080fd5b50604051611c9d380380611c9d83398101604081905261004c91610155565b600280546001600160a01b0319166001600160a01b03929092169190911790556000600355610185565b82805482825590600052602060002090601f0160209004810192821561011a5791602002820160005b838211156100eb57835183826101000a81548160ff021916908360018111156100ca576100ca61013f565b0217905550926020019260010160208160000104928301926001030261009f565b80156101185782816101000a81549060ff02191690556001016020816000010492830192600103026100eb565b505b5061012692915061012a565b5090565b5b80821115610126576000815560010161012b565b634e487b7160e01b600052602160045260246000fd5b60006020828403121561016757600080fd5b81516001600160a01b038116811461017e57600080fd5b9392505050565b611b09806101946000396000f3fe6080604052600436106100c25760003560e01c806359b134a11161007f57806377c29b691161005957806377c29b6914610209578063b87283ff14610244578063d15bf8b814610264578063da2ae6a81461028457600080fd5b806359b134a1146101895780635c52e0c2146101d45780636a7546cb146101e957600080fd5b806335ee26b9146100c757806339e18732146100fe5780633ccfd60b1461011357806347535d7b1461012857806349200d771461014a5780634986d83314610169575b600080fd5b3480156100d357600080fd5b506100e76100e236600461186e565b6102a4565b60405160ff90911681526020015b60405180910390f35b61011161010c36600461186e565b61033d565b005b34801561011f57600080fd5b5061011161049f565b34801561013457600080fd5b50600354155b60405190151581526020016100f5565b34801561015657600080fd5b506001545b6040519081526020016100f5565b34801561017557600080fd5b5061013a6101843660046118a7565b610754565b34801561019557600080fd5b506101a96101a43660046118a7565b61093f565b6040805182516001600160a01b031681526020808401519082015291810151908201526060016100f5565b3480156101e057600080fd5b5061015b610bfc565b3480156101f557600080fd5b506101a96102043660046118c2565b610c8f565b34801561021557600080fd5b5061022961022436600461186e565b610e70565b604080518251815260209283015192810192909252016100f5565b34801561025057600080fd5b5061011161025f36600461191c565b610f8c565b34801561027057600080fd5b506101a961027f3660046118a7565b6111fc565b34801561029057600080fd5b5061015b61029f36600461186e565b611572565b600080600354116102fc5760405162461bcd60e51b815260206004820152601b60248201527f4d61726b657420647565206e6f742072656163686564207965742e000000000060448201526064015b60405180910390fd5b60046000836001811115610312576103126119ec565b6001811115610323576103236119ec565b815260208101919091526040016000205460ff1692915050565b600354156103815760405162461bcd60e51b815260206004820152601160248201527026b0b935b2ba1034b99031b637b9b2b21760791b60448201526064016102f3565b60056000826001811115610397576103976119ec565b60018111156103a8576103a86119ec565b81526020019081526020016000206040518060a0016040528060008081546103cf90611a18565b918290555081523360208201523460408201526060018360018111156103f7576103f76119ec565b8152600060209182018190528354600180820186559482529082902083516004909202019081559082015181840180546001600160a01b0319166001600160a01b03909216919091179055604082015160028201556060820151600382018054939492939192909160ff1916908381811115610475576104756119ec565b021790555060809190910151600390910180549115156101000261ff001990921691909117905550565b6000600354116104e95760405162461bcd60e51b815260206004820152601560248201527426b0b935b2ba1034b99039ba34b6361037b832b71760591b60448201526064016102f3565b6104f233610754565b15156001146105435760405162461bcd60e51b815260206004820181905260248201527f596f752068617665206e6f7420706c6163656420616e7920626574207965742e60448201526064016102f3565b60008060008060005b6001548110156106815760006001828154811061056b5761056b611a31565b60009182526020808320908204015460ff601f9092166101000a900416915061059382610e70565b6020015190506000600460008460018111156105b1576105b16119ec565b60018111156105c2576105c26119ec565b815260208101919091526040016000205460ff16111561066a576105e68186611a47565b945060006105f43384610c8f565b60408101519091501561066457606481604001516004600086600181111561061e5761061e6119ec565b600181111561062f5761062f6119ec565b815260208101919091526040016000205461064d919060ff16611a5a565b6106579190611a71565b6106619088611a47565b96505b50610677565b6106748185611a47565b93505b505060010161054c565b50821561074557816106938483611a5a565b61069d9190611a71565b6106a79085611a47565b93506000336106b68587611a47565b604051600081818185875af1925050503d80600081146106f2576040519150601f19603f3d011682016040523d82523d6000602084013e6106f7565b606091505b50909150506001811515146107435760405162461bcd60e51b81526020600482015260126024820152712bb4ba34323930bbb0b6103330b4b632b21760711b60448201526064016102f3565b505b61074e336115b2565b50505050565b6000805b6001548110156109365760005b600560006001848154811061077c5761077c611a31565b90600052602060002090602091828204019190069054906101000a900460ff1660018111156107ad576107ad6119ec565b60018111156107be576107be6119ec565b815260208101919091526040016000205481101561092d57836001600160a01b031660056000600185815481106107f7576107f7611a31565b90600052602060002090602091828204019190069054906101000a900460ff166001811115610828576108286119ec565b6001811115610839576108396119ec565b8152602001908152602001600020828154811061085857610858611a31565b60009182526020909120600160049092020101546001600160a01b03161480156109165750600560006001848154811061089457610894611a31565b90600052602060002090602091828204019190069054906101000a900460ff1660018111156108c5576108c56119ec565b60018111156108d6576108d66119ec565b815260200190815260200160002081815481106108f5576108f5611a31565b906000526020600020906004020160030160019054906101000a900460ff16155b15610925575060019392505050565b600101610765565b50600101610758565b50600092915050565b610947611830565b604080516060810182526001600160a01b0384168152600060208201819052918101829052905b600154811015610bf55760005b600560006001848154811061099257610992611a31565b90600052602060002090602091828204019190069054906101000a900460ff1660018111156109c3576109c36119ec565b60018111156109d4576109d46119ec565b8152602081019190915260400160002054811015610bec57846001600160a01b03166005600060018581548110610a0d57610a0d611a31565b90600052602060002090602091828204019190069054906101000a900460ff166001811115610a3e57610a3e6119ec565b6001811115610a4f57610a4f6119ec565b81526020019081526020016000208281548110610a6e57610a6e611a31565b60009182526020909120600160049092020101546001600160a01b0316148015610b2c57506005600060018481548110610aaa57610aaa611a31565b90600052602060002090602091828204019190069054906101000a900460ff166001811115610adb57610adb6119ec565b6001811115610aec57610aec6119ec565b81526020019081526020016000208181548110610b0b57610b0b611a31565b906000526020600020906004020160030160019054906101000a900460ff16155b15610be45760208301805190610b4182611a18565b815250506005600060018481548110610b5c57610b5c611a31565b90600052602060002090602091828204019190069054906101000a900460ff166001811115610b8d57610b8d6119ec565b6001811115610b9e57610b9e6119ec565b81526020019081526020016000208181548110610bbd57610bbd611a31565b90600052602060002090600402016002015483604001818151610be09190611a47565b9052505b60010161097b565b5060010161096e565b5092915050565b600080805b600154811015610c89576005600060018381548110610c2257610c22611a31565b90600052602060002090602091828204019190069054906101000a900460ff166001811115610c5357610c536119ec565b6001811115610c6457610c646119ec565b8152602081019190915260400160002054610c7f9083611a47565b9150600101610c01565b50919050565b610c97611830565b604080516060810182526001600160a01b0385168152600060208201819052918101829052905b60056000856001811115610cd457610cd46119ec565b6001811115610ce557610ce56119ec565b8152602081019190915260400160002054811015610e6657846001600160a01b031660056000866001811115610d1d57610d1d6119ec565b6001811115610d2e57610d2e6119ec565b81526020019081526020016000208281548110610d4d57610d4d611a31565b60009182526020909120600160049092020101546001600160a01b0316148015610dd9575060056000856001811115610d8857610d886119ec565b6001811115610d9957610d996119ec565b81526020019081526020016000208181548110610db857610db8611a31565b906000526020600020906004020160030160019054906101000a900460ff16155b15610e5e5760208201805190610dee82611a18565b90525060056000856001811115610e0757610e076119ec565b6001811115610e1857610e186119ec565b81526020019081526020016000208181548110610e3757610e37611a31565b90600052602060002090600402016002015482604001818151610e5a9190611a47565b9052505b600101610cbe565b5090505b92915050565b60408051808201909152600080825260208201526000604051806040016040528060056000866001811115610ea757610ea76119ec565b6001811115610eb857610eb86119ec565b81526020019081526020016000208054905081526020016000815250905060005b60056000856001811115610eef57610eef6119ec565b6001811115610f0057610f006119ec565b8152602081019190915260400160002054811015610bf55760056000856001811115610f2e57610f2e6119ec565b6001811115610f3f57610f3f6119ec565b81526020019081526020016000208181548110610f5e57610f5e611a31565b90600052602060002090600402016002015482602001818151610f819190611a47565b905250600101610ed9565b6002546001600160a01b03163314610ffd5760405162461bcd60e51b815260206004820152602e60248201527f4f6e6c79206f7261636c6520697320616c6c6f77656420746f207265736f6c7660448201526d32903a3434b99036b0b935b2ba1760911b60648201526084016102f3565b600354156110575760405162461bcd60e51b815260206004820152602160248201527f4d61726b657420686173206265656e207265736f6c76656420616c72656164796044820152601760f91b60648201526084016102f3565b6001548151146110cf5760405162461bcd60e51b815260206004820152603760248201527f4f7261636c65206f7574636f6d652073657420646f6573206e6f74206d61746360448201527f682077697468206d61726b6574206f7574636f6d65732e00000000000000000060648201526084016102f3565b6000805b825181101561110e578281815181106110ee576110ee611a31565b602002602001015160ff16826111049190611a47565b91506001016110d3565b508060641461116b5760405162461bcd60e51b815260206004820152602360248201527f4f7574636f6d657320747275656e65737320617272617920697320696e76616c60448201526234b21760e91b60648201526084016102f3565b60005b82518110156111f35782818151811061118957611189611a31565b6020026020010151600460008360018111156111a7576111a76119ec565b60018111156111b8576111b86119ec565b60018111156111c9576111c96119ec565b81526020810191909152604001600020805460ff191660ff9290921691909117905560010161116e565b50504260035550565b611204611830565b604080516060810182526001600160a01b0384168152600060208083018290529282018190526005909252600080516020611a9483398151915254828052600080516020611ab4833981519152549192918291101561127f57600160009081526005602052600080516020611a94833981519152549061129b565b600080526005602052600080516020611ab48339815191525460015b9150915060005b8281101561142c57600080526005602052600080516020611ab483398151915280546001600160a01b0388169190839081106112e0576112e0611a31565b60009182526020909120600160049092020101546001600160a01b031603611366576020840180519061131282611a18565b905250600080526005602052600080516020611ab483398151915280548290811061133f5761133f611a31565b906000526020600020906004020160020154846040018181516113629190611a47565b9052505b60016000526005602052600080516020611a9483398151915280546001600160a01b03881691908390811061139d5761139d611a31565b60009182526020909120600160049092020101546001600160a01b03160361142457602084018051906113cf82611a18565b90525060016000526005602052600080516020611a948339815191528054829081106113fd576113fd611a31565b906000526020600020906004020160020154846040018181516114209190611a47565b9052505b6001016112a2565b50815b60056000836001811115611445576114456119ec565b6001811115611456576114566119ec565b815260208101919091526040016000205481101561156857856001600160a01b03166005600084600181111561148e5761148e6119ec565b600181111561149f5761149f6119ec565b815260200190815260200160002082815481106114be576114be611a31565b60009182526020909120600160049092020101546001600160a01b03160361156057602084018051906114f082611a18565b90525060056000836001811115611509576115096119ec565b600181111561151a5761151a6119ec565b8152602001908152602001600020818154811061153957611539611a31565b9060005260206000209060040201600201548460400181815161155c9190611a47565b9052505b60010161142f565b5091949350505050565b60006005600083600181111561158a5761158a6119ec565b600181111561159b5761159b6119ec565b815260208101919091526040016000205492915050565b60005b60015481101561182c5760005b60056000600184815481106115d9576115d9611a31565b90600052602060002090602091828204019190069054906101000a900460ff16600181111561160a5761160a6119ec565b600181111561161b5761161b6119ec565b815260208101919091526040016000205481101561182357826001600160a01b0316600560006001858154811061165457611654611a31565b90600052602060002090602091828204019190069054906101000a900460ff166001811115611685576116856119ec565b6001811115611696576116966119ec565b815260200190815260200160002082815481106116b5576116b5611a31565b60009182526020909120600160049092020101546001600160a01b0316148015611773575060056000600184815481106116f1576116f1611a31565b90600052602060002090602091828204019190069054906101000a900460ff166001811115611722576117226119ec565b6001811115611733576117336119ec565b8152602001908152602001600020818154811061175257611752611a31565b906000526020600020906004020160030160019054906101000a900460ff16155b1561181b576001600560006001858154811061179157611791611a31565b90600052602060002090602091828204019190069054906101000a900460ff1660018111156117c2576117c26119ec565b60018111156117d3576117d36119ec565b815260200190815260200160002082815481106117f2576117f2611a31565b906000526020600020906004020160030160016101000a81548160ff0219169083151502179055505b6001016115c2565b506001016115b5565b5050565b604051806060016040528060006001600160a01b0316815260200160008152602001600081525090565b80356002811061186957600080fd5b919050565b60006020828403121561188057600080fd5b6118898261185a565b9392505050565b80356001600160a01b038116811461186957600080fd5b6000602082840312156118b957600080fd5b61188982611890565b600080604083850312156118d557600080fd5b6118de83611890565b91506118ec6020840161185a565b90509250929050565b634e487b7160e01b600052604160045260246000fd5b803560ff8116811461186957600080fd5b60006020828403121561192e57600080fd5b813567ffffffffffffffff81111561194557600080fd5b8201601f8101841361195657600080fd5b803567ffffffffffffffff811115611970576119706118f5565b8060051b604051601f19603f830116810181811067ffffffffffffffff8211171561199d5761199d6118f5565b6040529182526020818401810192908101878411156119bb57600080fd5b6020850194505b838510156119e1576119d38561190b565b8152602094850194016119c2565b509695505050505050565b634e487b7160e01b600052602160045260246000fd5b634e487b7160e01b600052601160045260246000fd5b600060018201611a2a57611a2a611a02565b5060010190565b634e487b7160e01b600052603260045260246000fd5b80820180821115610e6a57610e6a611a02565b8082028115828204841417610e6a57610e6a611a02565b600082611a8e57634e487b7160e01b600052601260045260246000fd5b50049056fe1471eb6eb2c5e789fc3de43f8ce62938c7d1836ec861730447e2ada8fd81017b05b8ccbb9d4d8fb16ea74ce3c29a41f1b461fbdaff4714a0d9a8eb05499746bca2646970667358221220f0958a721de83ddca0bc28135ce7a11420664db5160f8c65cd37d3ed3608b55764736f6c634300081c0033","linkReferences":{}},"methodIdentifiers":{"betOn(uint8)":"39e18732","getGamblerBinaryBetStatistics(address)":"d15bf8b8","getGamblerGeneralStatistics(address)":"59b134a1","getGamblerSpecificOutcomeBetsStatistics(address,uint8)":"6a7546cb","getOutcomeTrueness(uint8)":"35ee26b9","getSpecificOutcomeStatistics(uint8)":"77c29b69","hasPlacedABet(address)":"4986d833","isOpen()":"47535d7b","numberOfBetsOn(uint8)":"da2ae6a8","numberOfOutcomes()":"49200d77","numberOfTotalBets()":"5c52e0c2","resolve(uint8[])":"b87283ff","withdraw()":"3ccfd60b"},"id":23}