{"abi":[{"type":"constructor","inputs":[{"name":"_oracleAddress","type":"address","internalType":"address"}],"stateMutability":"nonpayable"},{"type":"function","name":"betOn","inputs":[{"name":"choice","type":"uint8","internalType":"enum PredictionMarket.Outcome"}],"outputs":[],"stateMutability":"payable"},{"type":"function","name":"getGamblerBinaryBetStatistics","inputs":[{"name":"gambler","type":"address","internalType":"address"}],"outputs":[{"name":"","type":"tuple","internalType":"struct PredictionMarket.GamblerBetsStatus","components":[{"name":"gambler","type":"address","internalType":"address"},{"name":"count","type":"uint256","internalType":"uint256"},{"name":"investment","type":"uint256","internalType":"uint256"}]}],"stateMutability":"view"},{"type":"function","name":"getGamblerGeneralStatistics","inputs":[{"name":"gambler","type":"address","internalType":"address"}],"outputs":[{"name":"","type":"tuple","internalType":"struct PredictionMarket.GamblerBetsStatus","components":[{"name":"gambler","type":"address","internalType":"address"},{"name":"count","type":"uint256","internalType":"uint256"},{"name":"investment","type":"uint256","internalType":"uint256"}]}],"stateMutability":"view"},{"type":"function","name":"getGamblerSpecificOutcomeBetsStatistics","inputs":[{"name":"gambler","type":"address","internalType":"address"},{"name":"outcome","type":"uint8","internalType":"enum PredictionMarket.Outcome"}],"outputs":[{"name":"","type":"tuple","internalType":"struct PredictionMarket.GamblerBetsStatus","components":[{"name":"gambler","type":"address","internalType":"address"},{"name":"count","type":"uint256","internalType":"uint256"},{"name":"investment","type":"uint256","internalType":"uint256"}]}],"stateMutability":"view"},{"type":"function","name":"getSpecificOutcomeStatistics","inputs":[{"name":"outcome","type":"uint8","internalType":"enum PredictionMarket.Outcome"}],"outputs":[{"name":"","type":"tuple","internalType":"struct PredictionMarket.OutcomeBetStats","components":[{"name":"count","type":"uint256","internalType":"uint256"},{"name":"totalAmount","type":"uint256","internalType":"uint256"}]}],"stateMutability":"view"},{"type":"function","name":"isOpen","inputs":[],"outputs":[{"name":"","type":"bool","internalType":"bool"}],"stateMutability":"view"},{"type":"function","name":"numberOfBetsOn","inputs":[{"name":"outcome","type":"uint8","internalType":"enum PredictionMarket.Outcome"}],"outputs":[{"name":"","type":"uint256","internalType":"uint256"}],"stateMutability":"view"},{"type":"function","name":"numberOfOutcomes","inputs":[],"outputs":[{"name":"","type":"uint256","internalType":"uint256"}],"stateMutability":"view"},{"type":"function","name":"numberOfTotalBets","inputs":[],"outputs":[{"name":"","type":"uint256","internalType":"uint256"}],"stateMutability":"view"},{"type":"function","name":"resolve","inputs":[{"name":"outcomeTrueness","type":"uint8[]","internalType":"uint8[]"}],"outputs":[],"stateMutability":"nonpayable"},{"type":"function","name":"withdraw","inputs":[],"outputs":[],"stateMutability":"nonpayable"}],"bytecode":{"object":"0x600080805560c06040526080908152600160a0819052610020916002610076565b5034801561002d57600080fd5b506040516119fa3803806119fa83398101604081905261004c91610155565b600280546001600160a01b0319166001600160a01b03929092169190911790556000600355610185565b82805482825590600052602060002090601f0160209004810192821561011a5791602002820160005b838211156100eb57835183826101000a81548160ff021916908360018111156100ca576100ca61013f565b0217905550926020019260010160208160000104928301926001030261009f565b80156101185782816101000a81549060ff02191690556001016020816000010492830192600103026100eb565b505b5061012692915061012a565b5090565b5b80821115610126576000815560010161012b565b634e487b7160e01b600052602160045260246000fd5b60006020828403121561016757600080fd5b81516001600160a01b038116811461017e57600080fd5b9392505050565b611866806101946000396000f3fe60806040526004361061009c5760003560e01c80635c52e0c2116100645780635c52e0c2146101595780636a7546cb1461016e57806377c29b691461018e578063b87283ff146101c9578063d15bf8b8146101e9578063da2ae6a81461020957600080fd5b806339e18732146100a15780633ccfd60b146100b657806347535d7b146100cb57806349200d77146100ef57806359b134a11461010e575b600080fd5b6100b46100af3660046115a1565b610229565b005b3480156100c257600080fd5b506100b4610390565b3480156100d757600080fd5b50600354604051901581526020015b60405180910390f35b3480156100fb57600080fd5b506001545b6040519081526020016100e6565b34801561011a57600080fd5b5061012e6101293660046115da565b610672565b6040805182516001600160a01b031681526020808401519082015291810151908201526060016100e6565b34801561016557600080fd5b5061010061092f565b34801561017a57600080fd5b5061012e6101893660046115f5565b6109c2565b34801561019a57600080fd5b506101ae6101a93660046115a1565b610ba3565b604080518251815260209283015192810192909252016100e6565b3480156101d557600080fd5b506100b46101e436600461164f565b610cbf565b3480156101f557600080fd5b5061012e6102043660046115da565b610f2f565b34801561021557600080fd5b506101006102243660046115a1565b6112a5565b600354156102725760405162461bcd60e51b815260206004820152601160248201527026b0b935b2ba1034b99031b637b9b2b21760791b60448201526064015b60405180910390fd5b600560008260018111156102885761028861171f565b60018111156102995761029961171f565b81526020019081526020016000206040518060a0016040528060008081546102c09061174b565b918290555081523360208201523460408201526060018360018111156102e8576102e861171f565b8152600060209182018190528354600180820186559482529082902083516004909202019081559082015181840180546001600160a01b0319166001600160a01b03909216919091179055604082015160028201556060820151600382018054939492939192909160ff19169083818111156103665761036661171f565b021790555060809190910151600390910180549115156101000261ff001990921691909117905550565b6000600354116103ec5760405162461bcd60e51b815260206004820152602160248201527f50726564696374696f6e206973206e6f742066696e6973686564207965742e2e6044820152601760f91b6064820152608401610269565b60008060008060005b6001548110156105485760006001828154811061041457610414611764565b60009182526020808320908204015460ff601f9092166101000a90041691506004818360018111156104485761044861171f565b60018111156104595761045961171f565b815260208101919091526040016000205460ff16111561053f57600061047e82610ba3565b602001519050600061049033846109c2565b60408101519091501561052f5760408101516104ac908861177a565b96506104b8828761177a565b95508181604001516064600460008760018111156104d8576104d861171f565b60018111156104e9576104e961171f565b8152602081019190915260400160002054610507919060ff166117a3565b60ff1661051491906117c5565b61051e91906117dc565b610528908961177a565b975061053c565b610539828661177a565b94505b50505b506001016103f5565b50600083116105ad5760405162461bcd60e51b815260206004820152602b60248201527f596f752068617665206e6f7420696e766573746564206f6e206120636f72726560448201526a31ba1037baba31b7b6b29760a91b6064820152608401610269565b816105b884836117c5565b6105c291906117dc565b6105cc908561177a565b93506000336105db858761177a565b604051600081818185875af1925050503d8060008114610617576040519150601f19603f3d011682016040523d82523d6000602084013e61061c565b606091505b50509050806106625760405162461bcd60e51b81526020600482015260126024820152712bb4ba34323930bbb0b6103330b4b632b21760711b6044820152606401610269565b61066b336112e5565b5050505050565b61067a611563565b604080516060810182526001600160a01b0384168152600060208201819052918101829052905b6001548110156109285760005b60056000600184815481106106c5576106c5611764565b90600052602060002090602091828204019190069054906101000a900460ff1660018111156106f6576106f661171f565b60018111156107075761070761171f565b815260208101919091526040016000205481101561091f57846001600160a01b0316600560006001858154811061074057610740611764565b90600052602060002090602091828204019190069054906101000a900460ff1660018111156107715761077161171f565b60018111156107825761078261171f565b815260200190815260200160002082815481106107a1576107a1611764565b60009182526020909120600160049092020101546001600160a01b031614801561085f575060056000600184815481106107dd576107dd611764565b90600052602060002090602091828204019190069054906101000a900460ff16600181111561080e5761080e61171f565b600181111561081f5761081f61171f565b8152602001908152602001600020818154811061083e5761083e611764565b906000526020600020906004020160030160019054906101000a900460ff16155b1561091757602083018051906108748261174b565b81525050600560006001848154811061088f5761088f611764565b90600052602060002090602091828204019190069054906101000a900460ff1660018111156108c0576108c061171f565b60018111156108d1576108d161171f565b815260200190815260200160002081815481106108f0576108f0611764565b90600052602060002090600402016002015483604001818151610913919061177a565b9052505b6001016106ae565b506001016106a1565b5092915050565b600080805b6001548110156109bc57600560006001838154811061095557610955611764565b90600052602060002090602091828204019190069054906101000a900460ff1660018111156109865761098661171f565b60018111156109975761099761171f565b81526020810191909152604001600020546109b2908361177a565b9150600101610934565b50919050565b6109ca611563565b604080516060810182526001600160a01b0385168152600060208201819052918101829052905b60056000856001811115610a0757610a0761171f565b6001811115610a1857610a1861171f565b8152602081019190915260400160002054811015610b9957846001600160a01b031660056000866001811115610a5057610a5061171f565b6001811115610a6157610a6161171f565b81526020019081526020016000208281548110610a8057610a80611764565b60009182526020909120600160049092020101546001600160a01b0316148015610b0c575060056000856001811115610abb57610abb61171f565b6001811115610acc57610acc61171f565b81526020019081526020016000208181548110610aeb57610aeb611764565b906000526020600020906004020160030160019054906101000a900460ff16155b15610b915760208201805190610b218261174b565b90525060056000856001811115610b3a57610b3a61171f565b6001811115610b4b57610b4b61171f565b81526020019081526020016000208181548110610b6a57610b6a611764565b90600052602060002090600402016002015482604001818151610b8d919061177a565b9052505b6001016109f1565b5090505b92915050565b60408051808201909152600080825260208201526000604051806040016040528060056000866001811115610bda57610bda61171f565b6001811115610beb57610beb61171f565b81526020019081526020016000208054905081526020016000815250905060005b60056000856001811115610c2257610c2261171f565b6001811115610c3357610c3361171f565b81526020810191909152604001600020548110156109285760056000856001811115610c6157610c6161171f565b6001811115610c7257610c7261171f565b81526020019081526020016000208181548110610c9157610c91611764565b90600052602060002090600402016002015482602001818151610cb4919061177a565b905250600101610c0c565b6002546001600160a01b03163314610d305760405162461bcd60e51b815260206004820152602e60248201527f4f6e6c79206f7261636c6520697320616c6c6f77656420746f207265736f6c7660448201526d32903a3434b99036b0b935b2ba1760911b6064820152608401610269565b60035415610d8a5760405162461bcd60e51b815260206004820152602160248201527f4d61726b657420686173206265656e207265736f6c76656420616c72656164796044820152601760f91b6064820152608401610269565b600154815114610e025760405162461bcd60e51b815260206004820152603760248201527f4f7261636c65206f7574636f6d652073657420646f6573206e6f74206d61746360448201527f682077697468206d61726b6574206f7574636f6d65732e0000000000000000006064820152608401610269565b6000805b8251811015610e4157828181518110610e2157610e21611764565b602002602001015160ff1682610e37919061177a565b9150600101610e06565b5080606414610e9e5760405162461bcd60e51b815260206004820152602360248201527f4f7574636f6d657320747275656e65737320617272617920697320696e76616c60448201526234b21760e91b6064820152608401610269565b60005b8251811015610f2657828181518110610ebc57610ebc611764565b602002602001015160046000836001811115610eda57610eda61171f565b6001811115610eeb57610eeb61171f565b6001811115610efc57610efc61171f565b81526020810191909152604001600020805460ff191660ff92909216919091179055600101610ea1565b50504260035550565b610f37611563565b604080516060810182526001600160a01b03841681526000602080830182905292820181905260059092526000805160206117f1833981519152548280526000805160206118118339815191525491929182911015610fb2576001600090815260056020526000805160206117f18339815191525490610fce565b6000805260056020526000805160206118118339815191525460015b9150915060005b8281101561115f5760008052600560205260008051602061181183398151915280546001600160a01b03881691908390811061101357611013611764565b60009182526020909120600160049092020101546001600160a01b03160361109957602084018051906110458261174b565b90525060008052600560205260008051602061181183398151915280548290811061107257611072611764565b90600052602060002090600402016002015484604001818151611095919061177a565b9052505b600160005260056020526000805160206117f183398151915280546001600160a01b0388169190839081106110d0576110d0611764565b60009182526020909120600160049092020101546001600160a01b03160361115757602084018051906111028261174b565b905250600160005260056020526000805160206117f183398151915280548290811061113057611130611764565b90600052602060002090600402016002015484604001818151611153919061177a565b9052505b600101610fd5565b50815b600560008360018111156111785761117861171f565b60018111156111895761118961171f565b815260208101919091526040016000205481101561129b57856001600160a01b0316600560008460018111156111c1576111c161171f565b60018111156111d2576111d261171f565b815260200190815260200160002082815481106111f1576111f1611764565b60009182526020909120600160049092020101546001600160a01b03160361129357602084018051906112238261174b565b9052506005600083600181111561123c5761123c61171f565b600181111561124d5761124d61171f565b8152602001908152602001600020818154811061126c5761126c611764565b9060005260206000209060040201600201548460400181815161128f919061177a565b9052505b600101611162565b5091949350505050565b6000600560008360018111156112bd576112bd61171f565b60018111156112ce576112ce61171f565b815260208101919091526040016000205492915050565b60005b60015481101561155f5760005b600560006001848154811061130c5761130c611764565b90600052602060002090602091828204019190069054906101000a900460ff16600181111561133d5761133d61171f565b600181111561134e5761134e61171f565b815260208101919091526040016000205481101561155657826001600160a01b0316600560006001858154811061138757611387611764565b90600052602060002090602091828204019190069054906101000a900460ff1660018111156113b8576113b861171f565b60018111156113c9576113c961171f565b815260200190815260200160002082815481106113e8576113e8611764565b60009182526020909120600160049092020101546001600160a01b03161480156114a65750600560006001848154811061142457611424611764565b90600052602060002090602091828204019190069054906101000a900460ff1660018111156114555761145561171f565b60018111156114665761146661171f565b8152602001908152602001600020818154811061148557611485611764565b906000526020600020906004020160030160019054906101000a900460ff16155b1561154e57600160056000600185815481106114c4576114c4611764565b90600052602060002090602091828204019190069054906101000a900460ff1660018111156114f5576114f561171f565b60018111156115065761150661171f565b8152602001908152602001600020828154811061152557611525611764565b906000526020600020906004020160030160016101000a81548160ff0219169083151502179055505b6001016112f5565b506001016112e8565b5050565b604051806060016040528060006001600160a01b0316815260200160008152602001600081525090565b80356002811061159c57600080fd5b919050565b6000602082840312156115b357600080fd5b6115bc8261158d565b9392505050565b80356001600160a01b038116811461159c57600080fd5b6000602082840312156115ec57600080fd5b6115bc826115c3565b6000806040838503121561160857600080fd5b611611836115c3565b915061161f6020840161158d565b90509250929050565b634e487b7160e01b600052604160045260246000fd5b803560ff8116811461159c57600080fd5b60006020828403121561166157600080fd5b813567ffffffffffffffff81111561167857600080fd5b8201601f8101841361168957600080fd5b803567ffffffffffffffff8111156116a3576116a3611628565b8060051b604051601f19603f830116810181811067ffffffffffffffff821117156116d0576116d0611628565b6040529182526020818401810192908101878411156116ee57600080fd5b6020850194505b83851015611714576117068561163e565b8152602094850194016116f5565b509695505050505050565b634e487b7160e01b600052602160045260246000fd5b634e487b7160e01b600052601160045260246000fd5b60006001820161175d5761175d611735565b5060010190565b634e487b7160e01b600052603260045260246000fd5b80820180821115610b9d57610b9d611735565b634e487b7160e01b600052601260045260246000fd5b600060ff8316806117b6576117b661178d565b8060ff84160491505092915050565b8082028115828204841417610b9d57610b9d611735565b6000826117eb576117eb61178d565b50049056fe1471eb6eb2c5e789fc3de43f8ce62938c7d1836ec861730447e2ada8fd81017b05b8ccbb9d4d8fb16ea74ce3c29a41f1b461fbdaff4714a0d9a8eb05499746bca26469706673582212204090747afc8a7b93d61de5529c08d31447b6571c1986b84fe3d14bafe65b9b1d64736f6c634300081c0033","linkReferences":{}},"methodIdentifiers":{"betOn(uint8)":"39e18732","getGamblerBinaryBetStatistics(address)":"d15bf8b8","getGamblerGeneralStatistics(address)":"59b134a1","getGamblerSpecificOutcomeBetsStatistics(address,uint8)":"6a7546cb","getSpecificOutcomeStatistics(uint8)":"77c29b69","isOpen()":"47535d7b","numberOfBetsOn(uint8)":"da2ae6a8","numberOfOutcomes()":"49200d77","numberOfTotalBets()":"5c52e0c2","resolve(uint8[])":"b87283ff","withdraw()":"3ccfd60b"},"id":23}