{"abi":[{"type":"constructor","inputs":[{"name":"_oracleAddress","type":"address","internalType":"address"}],"stateMutability":"nonpayable"},{"type":"function","name":"betOn","inputs":[{"name":"choice","type":"uint8","internalType":"enum PredictionMarket.Outcome"}],"outputs":[],"stateMutability":"payable"},{"type":"function","name":"getGamblerBinaryBetStatistics","inputs":[{"name":"gambler","type":"address","internalType":"address"}],"outputs":[{"name":"","type":"tuple","internalType":"struct PredictionMarket.GamblerBetsStatus","components":[{"name":"gambler","type":"address","internalType":"address"},{"name":"count","type":"uint256","internalType":"uint256"},{"name":"investment","type":"uint256","internalType":"uint256"}]}],"stateMutability":"view"},{"type":"function","name":"getGamblerGeneralStatistics","inputs":[{"name":"gambler","type":"address","internalType":"address"}],"outputs":[{"name":"","type":"tuple","internalType":"struct PredictionMarket.GamblerBetsStatus","components":[{"name":"gambler","type":"address","internalType":"address"},{"name":"count","type":"uint256","internalType":"uint256"},{"name":"investment","type":"uint256","internalType":"uint256"}]}],"stateMutability":"view"},{"type":"function","name":"getGamblerSpecificOutcomeBetsStatistics","inputs":[{"name":"gambler","type":"address","internalType":"address"},{"name":"outcome","type":"uint8","internalType":"enum PredictionMarket.Outcome"}],"outputs":[{"name":"","type":"tuple","internalType":"struct PredictionMarket.GamblerBetsStatus","components":[{"name":"gambler","type":"address","internalType":"address"},{"name":"count","type":"uint256","internalType":"uint256"},{"name":"investment","type":"uint256","internalType":"uint256"}]}],"stateMutability":"view"},{"type":"function","name":"getSpecificOutcomeStatistics","inputs":[{"name":"outcome","type":"uint8","internalType":"enum PredictionMarket.Outcome"}],"outputs":[{"name":"","type":"tuple","internalType":"struct PredictionMarket.OutcomeBetStats","components":[{"name":"count","type":"uint256","internalType":"uint256"},{"name":"totalAmount","type":"uint256","internalType":"uint256"}]}],"stateMutability":"view"},{"type":"function","name":"isOpen","inputs":[],"outputs":[{"name":"","type":"bool","internalType":"bool"}],"stateMutability":"view"},{"type":"function","name":"numberOfBetsOn","inputs":[{"name":"outcome","type":"uint8","internalType":"enum PredictionMarket.Outcome"}],"outputs":[{"name":"","type":"uint256","internalType":"uint256"}],"stateMutability":"view"},{"type":"function","name":"numberOfOutcomes","inputs":[],"outputs":[{"name":"","type":"uint256","internalType":"uint256"}],"stateMutability":"view"},{"type":"function","name":"numberOfTotalBets","inputs":[],"outputs":[{"name":"","type":"uint256","internalType":"uint256"}],"stateMutability":"view"},{"type":"function","name":"resolve","inputs":[{"name":"outcomeTrueness","type":"uint8[]","internalType":"uint8[]"}],"outputs":[],"stateMutability":"nonpayable"},{"type":"function","name":"withdraw","inputs":[],"outputs":[],"stateMutability":"nonpayable"}],"bytecode":{"object":"0x600080805560c06040526080908152600160a0819052610020916002610076565b5034801561002d57600080fd5b5060405161195638038061195683398101604081905261004c91610155565b600280546001600160a01b0319166001600160a01b03929092169190911790556000600355610185565b82805482825590600052602060002090601f0160209004810192821561011a5791602002820160005b838211156100eb57835183826101000a81548160ff021916908360018111156100ca576100ca61013f565b0217905550926020019260010160208160000104928301926001030261009f565b80156101185782816101000a81549060ff02191690556001016020816000010492830192600103026100eb565b505b5061012692915061012a565b5090565b5b80821115610126576000815560010161012b565b634e487b7160e01b600052602160045260246000fd5b60006020828403121561016757600080fd5b81516001600160a01b038116811461017e57600080fd5b9392505050565b6117c2806101946000396000f3fe60806040526004361061009c5760003560e01c80635c52e0c2116100645780635c52e0c2146101595780636a7546cb1461016e57806377c29b691461018e578063b87283ff146101c9578063d15bf8b8146101e9578063da2ae6a81461020957600080fd5b806339e18732146100a15780633ccfd60b146100b657806347535d7b146100cb57806349200d77146100ef57806359b134a11461010e575b600080fd5b6100b46100af3660046114fd565b610229565b005b3480156100c257600080fd5b506100b461038d565b3480156100d757600080fd5b50600354604051901581526020015b60405180910390f35b3480156100fb57600080fd5b506001545b6040519081526020016100e6565b34801561011a57600080fd5b5061012e610129366004611536565b61066f565b6040805182516001600160a01b031681526020808401519082015291810151908201526060016100e6565b34801561016557600080fd5b5061010061088b565b34801561017a57600080fd5b5061012e610189366004611551565b61091e565b34801561019a57600080fd5b506101ae6101a93660046114fd565b610aff565b604080518251815260209283015192810192909252016100e6565b3480156101d557600080fd5b506100b46101e43660046115ab565b610c1b565b3480156101f557600080fd5b5061012e610204366004611536565b610e8b565b34801561021557600080fd5b506101006102243660046114fd565b611201565b6003541561026f5760405162461bcd60e51b815260206004820152600e60248201526d26b0b935b2ba1031b637b9b2b21760911b60448201526064015b60405180910390fd5b600560008260018111156102855761028561167b565b60018111156102965761029661167b565b81526020019081526020016000206040518060a0016040528060008081546102bd906116a7565b918290555081523360208201523460408201526060018360018111156102e5576102e561167b565b8152600060209182018190528354600180820186559482529082902083516004909202019081559082015181840180546001600160a01b0319166001600160a01b03909216919091179055604082015160028201556060820151600382018054939492939192909160ff19169083818111156103635761036361167b565b021790555060809190910151600390910180549115156101000261ff001990921691909117905550565b6000600354116103e95760405162461bcd60e51b815260206004820152602160248201527f50726564696374696f6e206973206e6f742066696e6973686564207965742e2e6044820152601760f91b6064820152608401610266565b60008060008060005b60015481101561054557600060018281548110610411576104116116c0565b60009182526020808320908204015460ff601f9092166101000a90041691506004818360018111156104455761044561167b565b60018111156104565761045661167b565b815260208101919091526040016000205460ff16111561053c57600061047b82610aff565b602001519050600061048d338461091e565b60408101519091501561052c5760408101516104a990886116d6565b96506104b582876116d6565b95508181604001516064600460008760018111156104d5576104d561167b565b60018111156104e6576104e661167b565b8152602081019190915260400160002054610504919060ff166116ff565b60ff166105119190611721565b61051b9190611738565b61052590896116d6565b9750610539565b61053682866116d6565b94505b50505b506001016103f2565b50600083116105aa5760405162461bcd60e51b815260206004820152602b60248201527f596f752068617665206e6f7420696e766573746564206f6e206120636f72726560448201526a31ba1037baba31b7b6b29760a91b6064820152608401610266565b816105b58483611721565b6105bf9190611738565b6105c990856116d6565b93506000336105d885876116d6565b604051600081818185875af1925050503d8060008114610614576040519150601f19603f3d011682016040523d82523d6000602084013e610619565b606091505b505090508061065f5760405162461bcd60e51b81526020600482015260126024820152712bb4ba34323930bbb0b6103330b4b632b21760711b6044820152606401610266565b61066833611241565b5050505050565b6106776114bf565b604080516060810182526001600160a01b0384168152600060208201819052918101829052905b6001548110156108845760005b60056000600184815481106106c2576106c26116c0565b90600052602060002090602091828204019190069054906101000a900460ff1660018111156106f3576106f361167b565b60018111156107045761070461167b565b815260208101919091526040016000205481101561087b57846001600160a01b0316600560006001858154811061073d5761073d6116c0565b90600052602060002090602091828204019190069054906101000a900460ff16600181111561076e5761076e61167b565b600181111561077f5761077f61167b565b8152602001908152602001600020828154811061079e5761079e6116c0565b60009182526020909120600160049092020101546001600160a01b03160361087357602083018051906107d0826116a7565b8152505060056000600183815481106107eb576107eb6116c0565b90600052602060002090602091828204019190069054906101000a900460ff16600181111561081c5761081c61167b565b600181111561082d5761082d61167b565b8152602001908152602001600020818154811061084c5761084c6116c0565b9060005260206000209060040201600201548360400181815161086f91906116d6565b9052505b6001016106ab565b5060010161069e565b5092915050565b600080805b6001548110156109185760056000600183815481106108b1576108b16116c0565b90600052602060002090602091828204019190069054906101000a900460ff1660018111156108e2576108e261167b565b60018111156108f3576108f361167b565b815260208101919091526040016000205461090e90836116d6565b9150600101610890565b50919050565b6109266114bf565b604080516060810182526001600160a01b0385168152600060208201819052918101829052905b600560008560018111156109635761096361167b565b60018111156109745761097461167b565b8152602081019190915260400160002054811015610af557846001600160a01b0316600560008660018111156109ac576109ac61167b565b60018111156109bd576109bd61167b565b815260200190815260200160002082815481106109dc576109dc6116c0565b60009182526020909120600160049092020101546001600160a01b0316148015610a68575060056000856001811115610a1757610a1761167b565b6001811115610a2857610a2861167b565b81526020019081526020016000208181548110610a4757610a476116c0565b906000526020600020906004020160030160019054906101000a900460ff16155b15610aed5760208201805190610a7d826116a7565b90525060056000856001811115610a9657610a9661167b565b6001811115610aa757610aa761167b565b81526020019081526020016000208181548110610ac657610ac66116c0565b90600052602060002090600402016002015482604001818151610ae991906116d6565b9052505b60010161094d565b5090505b92915050565b60408051808201909152600080825260208201526000604051806040016040528060056000866001811115610b3657610b3661167b565b6001811115610b4757610b4761167b565b81526020019081526020016000208054905081526020016000815250905060005b60056000856001811115610b7e57610b7e61167b565b6001811115610b8f57610b8f61167b565b81526020810191909152604001600020548110156108845760056000856001811115610bbd57610bbd61167b565b6001811115610bce57610bce61167b565b81526020019081526020016000208181548110610bed57610bed6116c0565b90600052602060002090600402016002015482602001818151610c1091906116d6565b905250600101610b68565b6002546001600160a01b03163314610c8c5760405162461bcd60e51b815260206004820152602e60248201527f4f6e6c79206f7261636c6520697320616c6c6f77656420746f207265736f6c7660448201526d32903a3434b99036b0b935b2ba1760911b6064820152608401610266565b60035415610ce65760405162461bcd60e51b815260206004820152602160248201527f4d61726b657420686173206265656e207265736f6c76656420616c72656164796044820152601760f91b6064820152608401610266565b600154815114610d5e5760405162461bcd60e51b815260206004820152603760248201527f4f7261636c65206f7574636f6d652073657420646f6573206e6f74206d61746360448201527f682077697468206d61726b6574206f7574636f6d65732e0000000000000000006064820152608401610266565b6000805b8251811015610d9d57828181518110610d7d57610d7d6116c0565b602002602001015160ff1682610d9391906116d6565b9150600101610d62565b5080606414610dfa5760405162461bcd60e51b815260206004820152602360248201527f4f7574636f6d657320747275656e65737320617272617920697320696e76616c60448201526234b21760e91b6064820152608401610266565b60005b8251811015610e8257828181518110610e1857610e186116c0565b602002602001015160046000836001811115610e3657610e3661167b565b6001811115610e4757610e4761167b565b6001811115610e5857610e5861167b565b81526020810191909152604001600020805460ff191660ff92909216919091179055600101610dfd565b50504260035550565b610e936114bf565b604080516060810182526001600160a01b038416815260006020808301829052928201819052600590925260008051602061174d8339815191525482805260008051602061176d8339815191525491929182911015610f0e5760016000908152600560205260008051602061174d8339815191525490610f2a565b60008052600560205260008051602061176d8339815191525460015b9150915060005b828110156110bb5760008052600560205260008051602061176d83398151915280546001600160a01b038816919083908110610f6f57610f6f6116c0565b60009182526020909120600160049092020101546001600160a01b031603610ff55760208401805190610fa1826116a7565b90525060008052600560205260008051602061176d833981519152805482908110610fce57610fce6116c0565b90600052602060002090600402016002015484604001818151610ff191906116d6565b9052505b6001600052600560205260008051602061174d83398151915280546001600160a01b03881691908390811061102c5761102c6116c0565b60009182526020909120600160049092020101546001600160a01b0316036110b3576020840180519061105e826116a7565b9052506001600052600560205260008051602061174d83398151915280548290811061108c5761108c6116c0565b906000526020600020906004020160020154846040018181516110af91906116d6565b9052505b600101610f31565b50815b600560008360018111156110d4576110d461167b565b60018111156110e5576110e561167b565b81526020810191909152604001600020548110156111f757856001600160a01b03166005600084600181111561111d5761111d61167b565b600181111561112e5761112e61167b565b8152602001908152602001600020828154811061114d5761114d6116c0565b60009182526020909120600160049092020101546001600160a01b0316036111ef576020840180519061117f826116a7565b905250600560008360018111156111985761119861167b565b60018111156111a9576111a961167b565b815260200190815260200160002081815481106111c8576111c86116c0565b906000526020600020906004020160020154846040018181516111eb91906116d6565b9052505b6001016110be565b5091949350505050565b6000600560008360018111156112195761121961167b565b600181111561122a5761122a61167b565b815260208101919091526040016000205492915050565b60005b6001548110156114bb5760005b6005600060018481548110611268576112686116c0565b90600052602060002090602091828204019190069054906101000a900460ff1660018111156112995761129961167b565b60018111156112aa576112aa61167b565b81526020810191909152604001600020548110156114b257826001600160a01b031660056000600185815481106112e3576112e36116c0565b90600052602060002090602091828204019190069054906101000a900460ff1660018111156113145761131461167b565b60018111156113255761132561167b565b81526020019081526020016000208281548110611344576113446116c0565b60009182526020909120600160049092020101546001600160a01b031614801561140257506005600060018481548110611380576113806116c0565b90600052602060002090602091828204019190069054906101000a900460ff1660018111156113b1576113b161167b565b60018111156113c2576113c261167b565b815260200190815260200160002081815481106113e1576113e16116c0565b906000526020600020906004020160030160019054906101000a900460ff16155b156114aa5760016005600060018581548110611420576114206116c0565b90600052602060002090602091828204019190069054906101000a900460ff1660018111156114515761145161167b565b60018111156114625761146261167b565b81526020019081526020016000208281548110611481576114816116c0565b906000526020600020906004020160030160016101000a81548160ff0219169083151502179055505b600101611251565b50600101611244565b5050565b604051806060016040528060006001600160a01b0316815260200160008152602001600081525090565b8035600281106114f857600080fd5b919050565b60006020828403121561150f57600080fd5b611518826114e9565b9392505050565b80356001600160a01b03811681146114f857600080fd5b60006020828403121561154857600080fd5b6115188261151f565b6000806040838503121561156457600080fd5b61156d8361151f565b915061157b602084016114e9565b90509250929050565b634e487b7160e01b600052604160045260246000fd5b803560ff811681146114f857600080fd5b6000602082840312156115bd57600080fd5b813567ffffffffffffffff8111156115d457600080fd5b8201601f810184136115e557600080fd5b803567ffffffffffffffff8111156115ff576115ff611584565b8060051b604051601f19603f830116810181811067ffffffffffffffff8211171561162c5761162c611584565b60405291825260208184018101929081018784111561164a57600080fd5b6020850194505b83851015611670576116628561159a565b815260209485019401611651565b509695505050505050565b634e487b7160e01b600052602160045260246000fd5b634e487b7160e01b600052601160045260246000fd5b6000600182016116b9576116b9611691565b5060010190565b634e487b7160e01b600052603260045260246000fd5b80820180821115610af957610af9611691565b634e487b7160e01b600052601260045260246000fd5b600060ff831680611712576117126116e9565b8060ff84160491505092915050565b8082028115828204841417610af957610af9611691565b600082611747576117476116e9565b50049056fe1471eb6eb2c5e789fc3de43f8ce62938c7d1836ec861730447e2ada8fd81017b05b8ccbb9d4d8fb16ea74ce3c29a41f1b461fbdaff4714a0d9a8eb05499746bca2646970667358221220173257d3dca95f716e84af611643a9a9c237ea55d98ceb9cc3b016b37cd3f83464736f6c634300081c0033","linkReferences":{}},"methodIdentifiers":{"betOn(uint8)":"39e18732","getGamblerBinaryBetStatistics(address)":"d15bf8b8","getGamblerGeneralStatistics(address)":"59b134a1","getGamblerSpecificOutcomeBetsStatistics(address,uint8)":"6a7546cb","getSpecificOutcomeStatistics(uint8)":"77c29b69","isOpen()":"47535d7b","numberOfBetsOn(uint8)":"da2ae6a8","numberOfOutcomes()":"49200d77","numberOfTotalBets()":"5c52e0c2","resolve(uint8[])":"b87283ff","withdraw()":"3ccfd60b"},"id":23}